:020000040800F2
:1000000000000320F52600084527000845270008C2
:100010004527000845270008452700080000000084
:10002000000000000000000000000000E1160008D1
:100030004527000800000000F1180008415500089D
:1000400045270008452700084527000845270008E0
:1000500045270008452700084527000845270008D0
:1000600045270008452700084527000845270008C0
:1000700045270008452700084527000845270008B0
:1000800045270008452700084527000845270008A0
:100090004527000845270008452700084527000890
:1000A0004527000845270008452700084527000880
:1000B0004527000845270008452700084527000870
:1000C0004527000845270008452700084527000860
:1000D0004527000845270008452700084527000850
:1000E0004527000845270008452700084527000840
:1000F0004D550008452700084527000845270008FA
:10010000452700084527000845270008452700081F
:10011000452700084527000845270008452700080F
:1001200045270008452700084527000845270008FF
:1001300061550008452700084527000845270008A5
:1001400045270008452700084527000845270008DF
:1001500045270008452700084527000845270008CF
:1001600045270008452700084527000845270008BF
:100170004527000845270008452700080000000023
:10018000452700084527000845270008452700089F
:100190004527000875550008452700084527000831
:0C01A000452700084527000845270008F7
:1001B00010B5054C237833B9044B13B10448AFF3A1
:1001C00000800123237010BDE80000200000000023
:1001D000B859000808B5034B1BB103490348AFF3F6
:1001E000008008BD00000000EC000020B8590008A5
:1001F00053B94AB9002908BF00281CBF4FF0FF318E
:100200004FF0FF3001F0F8B8ADF1080C6DE904CE05
:1002100000F006F8DDF804E0DDE9022304B07047E1
:100220002DE9F047089E04468846002B4BD18A42B0
:10023000154667D9B2FA82F24AB1C2F1200701FA33
:1002400002F320FA07F7954047EA030894404FEA83
:10025000154E230CB8FBFEF71FFA85FC0EFB178822
:1002600043EA084307FB0CF1994209D9EB1807F15F
:10027000FF3080F01B81994240F21881023F2B44ED
:100280005B1AA4B2B3FBFEF00EFB103344EA034446
:1002900000FB0CFCA44509D92C1900F1FF3380F0B8
:1002A0000781A44540F2048102382C4440EA07400B
:1002B000A4EB0C0400271EB1D4400023C6E9004380
:1002C0003946BDE8F0878B4209D9002E00F0EB805B
:1002D0000027C6E9000138463946BDE8F087B3FA81
:1002E00083F7002F47D18B4202D3824200F2FA807B
:1002F000841A61EB030301209846002EE0D0C6E982
:100300000048DDE702B9FFDEB2FA82F2002A40F0CF
:100310008F80491B4FEA154E1FFA85F80127B1FB64
:10032000FEFC230C0EFB1C1143EA014308FB0CF1FD
:10033000994207D9EB180CF1FF3002D2994200F232
:10034000CD808446591AA3B2B1FBFEF00EFB101407
:1003500043EA044408FB00F8A04507D92C1900F132
:10036000FF3302D2A04500F2B6801846A4EB080481
:1003700040EA0C409FE7C7F1200CBB4022FA0CFE7C
:100380004EEA030E01FA07F420FA0CF521FA0CF3F9
:100390004FEA1E482543B3FBF8F92C0C08FB193330
:1003A0001FFA8EFA44EA034309FB0AF49C4202FA5C
:1003B00007F200FA07F10BD91EEB030309F1FF3036
:1003C00080F087809C4240F28480A9F10209734446
:1003D0001B1BADB2B3FBF8F008FB103345EA034436
:1003E00000FB0AFAA24508D91EEB040400F1FF3312
:1003F0006BD2A24569D90238744440EA0940A0FB97
:100400000289A4EB0A044C45C2464B4654D351D052
:10041000002E69D0B1EB0A0564EB030404FA0CFC6E
:10042000FD40FC404CEA0505C6E90054002747E7BB
:10043000C2F1200320FA03F7954001FA02F021FAF5
:1004400003F34FEA154E3843010CB3FBFEF71FFAD6
:1004500085F80EFB173341EA034107FB08F38B4293
:1004600004FA02F407D9691807F1FF3C2FD28B4236
:100470002DD9023F2944CB1A81B2B3FBFEF00EFB0B
:10048000103341EA034100FB08F38B4207D9691896
:1004900000F1FF3C17D28B4215D902382944C91A02
:1004A00040EA07473BE73746304609E70746E7E6B5
:1004B0001846FBE64145ABD2B8EB020A69EB0E02E7
:1004C00001381346A4E76046E9E7184695E7674612
:1004D000D1E781467CE702382C4447E7ACF1020CB7
:1004E0002B442FE7384608E73746E9E603685A0009
:1004F0004CBF43F0004323F000431844704700BF53
:1005000061B32DE9F84F01F1FF3A90460646D14616
:10051000002707EB090404EBD4746410E50071199B
:100520000846FFF7E3FFA245834605F10800304483
:1005300009D0FFF7DBFFC34500F1FF3005D8404588
:1005400009D2671CE5E7C34505D9A74202D004F1EB
:10055000FF39DEE700210846BDE8F88F08467047FE
:10056000012807D0022807D0044B00280CBF1846EA
:100570000020704702487047024870474D0C000841
:10058000510C0008550C000830B5254B83B00446CB
:100590008D1E4BB301A92846AFF30080F0B101993D
:1005A0002A46FFF7ADFF0146C0B1FFF79FFF4B683A
:1005B000A064012B2ED0002B01F1040026DBFFF7F5
:1005C00095FF0023C4E913030368002B12DBFFF738
:1005D0008DFF00232061184603B030BD0023236146
:1005E0000923184603B030BD0E490F48091AC91037
:1005F0000191D5E7C3F30360FFF7B2FF002814BFF2
:10060000002309232061184603B030BD0123C4E94B
:100610001303D9E7002323610523184603B030BD37
:1006200000000000FC5C0008CC5B00080368DA07EF
:1006300010B5044606D49B0700F1480009D500F028
:100640005FFC2368590709D51A070ED5DB0613D5B9
:1006500010BD00F04DFC23685907F5D404F1D0001B
:1006600000F056FC23681A07F0D404F5A87000F0D7
:1006700057FC2368DB06EBD404F5E870BDE81040B6
:1006800000F092BC036803B103441846704700BFF2
:1006900009207047704700BF70B504460D4608E05A
:1006A0002B6C63612A46236921460120984708285C
:1006B00008D1296C2046FFF767FF06460028EFD0D7
:1006C00005F0ECF80728FBD13046296CFFF7E2FF74
:1006D000281D00F001FC00BF2DE9F0470C1D054668
:1006E00017460FCCADF5727D03AE0FC60FCC0FC60B
:1006F0000FCC0FC694E80F0002ACD5F80C80D5F8EB
:10070000189086E80F000023236021E0236C6B61C2
:100710004FF4F07221467AA805F0ECF82B697AAA1A
:10072000294630469847889BCDE900498246636454
:1007300031462B462A460120C0470746F8B94FF4F8
:10074000F0727AA9204605F0D5F8BAF1080F1CD14D
:10075000216C2846FFF718FF002F08BF092607461F
:1007600018BF0A260028D1D0A36B46F01001CDE9AE
:1007700000492A46636401202B46C04700B109277F
:1007800038460DF5727DBDE8F087BAF1070FF6D156
:100790003846216CFFF77EFF03A800F09DFB00BFE9
:1007A000406C7047F0B5CB6B0B640D1D0F460646D1
:1007B0000FCDF9B001AC0FC40FCD0FC40FCD0FC4D6
:1007C00095E80F004FF0FF3584E80F00009506E034
:1007D00033696A46314698470828044608D110997B
:1007E0003046FFF7D1FE0028F2D0092079B0F0BDE5
:1007F0006846FFF71BFF062CF7D139463046FFF756
:100800004BFF00BF30B4DD6BC160826119461D64CF
:10081000002230BC60E700BF70B5C66843690B6456
:10082000BEB903690A4604460D46014602209847B0
:10083000072807D0082803D129462046FFF72CFFB8
:1008400005F02CF83046296CFFF724FF281D00F036
:1008500043FB0122FFF740FF05F020F8C2681AB100
:10086000CA6B0A64002237E79CE700BF704700BFED
:10087000836813B10146012018477047042907D83F
:10088000DFE801F00308060808000BB90F2A03D9B6
:10089000022070470120704700EB8202184653681F
:1008A000009A1360704700BF10B584B0002303ACFA
:1008B0000A4600941946FFF7E1FF039804B010BD03
:1008C000042907D8DFE801F00308060808000BB97F
:1008D0000F2A03D9022070470120704700EB8200E5
:1008E000009A126842601846704700BF10B584B085
:1008F00004AC002344F8042D0A4600941946FFF77F
:10090000DFFF04B010BD00BFF0B5D36B1364151D3D
:1009100007460E460FCDADF50F7D17AC0FC40FCDBA
:100920000FC40FCD0FC495E80F004FF0FF3584E8DA
:100930000F00169510E016A8FFF7D8FF314616A84D
:10094000B84716AA694678B9049B08209847052835
:1009500004460AD0092807D026996846FFF714FEF6
:100960006A460C210028E6D0092416A8FFF75EFE8F
:1009700020460DF50F7DF0BD2DE9F04F0D46C96CF9
:1009800089B00C1D164600F0030B0A6806941F463A
:10099000002B68D0130CD9B212048DF81D3002233D
:1009A00004EB810405928DF81C302B6DBBF1020F16
:1009B00008BFAC6B13F0010346D1019300F00803AC
:1009C0000093D4F80090B9F1000F00F0F380022FEB
:1009D00045D0B4F80090B4F802800434AB6C28F031
:1009E000010A0F2130469A44FFF75EFF824534D852
:1009F00029F001035344834294BF002001204FEAB1
:100A0000480808F0020809F0010948EA0908B8F1A5
:100A1000010F3AD031D3B8F1020F1AD1236823F075
:100A2000004ABBF1000F66D130B1009A002A6CD0A9
:100A3000BAF1000F00F09080002B00DA04340AF1C4
:100A4000010304EB8304BCE7304605A900F046FB34
:100A500078B1092009B0BDE8F08F0020CFE7D4F8C5
:100A600004800834BAE7120203230592ADF81C3063
:100A70009BE7082009B0BDE8F08FBBF1000F02D062
:100A8000002840F0B48004349BE7BBF1000F18D17C
:100A9000A8B1D4E90023991C4FEAD272D9D005F14C
:100AA00058010133049100F0B580201DFFF7EAFDE5
:100AB00004AB01462846AFF30080002867D1083414
:100AC0007FE70D213046D5F82080FFF7EDFE804509
:100AD000F5D1AB6A9C42F2D12046FFF707FD0F210A
:100AE00002463046FFF702FF30462A460021FFF754
:100AF000FDFE0720AEE70D213046D5F82080FFF738
:100B0000D3FE804532D0236896E7BAF1000F23D098
:100B100005F1580304F10408CDF808B0DDF80090A1
:100B20000397A3461C4602E05745B94640D04046CD
:100B30000494FFF7A7FD04AB014600222846AFF35B
:100B4000008009F1010708F104080028ECD0D14524
:100B50005C46DDE902B7D6D130460D21FFF7A4FE91
:100B6000049B2862C5E90934062073E7AB6A9C42FE
:100B7000C9D104224FF00008A318C5E90AA8C5E9A5
:100B80000C23236843454DDB0123019357E780463F
:100B90000D213046FFF788FEB8F1020F28623ED1E2
:100BA0002B46049A43F82C2F6B62AC62062051E767
:100BB0005C46D1E705A9304600F090FA00287FF4A2
:100BC00048AF019B002B3FF454AF0F213046FFF795
:100BD0006BFE0E2102463046FFF788FE30461A4A69
:100BE0000F21FFF783FE072009B0BDE8F08F2046F4
:100BF000FFF77CFC04340746AC632846AFF3008063
:100C000000283FF426AF30463A460F21FFF76EFE2C
:100C100007201FE730460D21FFF746FE2862049BA0
:100C20006B62C2E70AF1010004EB8000FFF75EFC93
:100C30000F2102463046FFF759FE30462A4641460C
:100C4000FFF754FE072005E700000000002393E6AD
:100C5000012391E602238FE62DE9F0410546C4B059
:100C6000042906D8DFE801F04D2B05030900032B0A
:100C70005FD0022044B0BDE8F081002BF9D1102AEA
:100C8000F7D82B68DC0600F1F48022AC20460192F4
:100C900000F094F9A86B019A0023012606FA03F1EB
:100CA000114203D0016844F8231004300133042BAF
:100CB000F4D1A863204600F077F90020DAE7012B91
:100CC0004FEA124697B252D0052BD2D106EB070855
:100CD000B8F1200FCDD80F2E40F29980B846002FE2
:100CE00040F0DB80AA6BAA630F2E40F2BE80B8F101
:100CF000000F02D002A800F00BF9002044B0BDE8BC
:100D0000F081002BB5D1AC6B97B2281D012606FAF5
:100D100003F1394203F1010302D021680160043478
:100D2000102B00F10400F2D112F40050E5D1AC63B5
:100D3000A0E7160C97B2F319102B9AD82B681A0754
:100D40005DD422AC204600F00DF904EBC601AB6B7C
:100D50003FB103EBC702186841F8040B0433934218
:100D6000F9D12046AB6300F0DBF8002082E7F219EE
:100D7000102A3FF67EAF0F2E3FF67BAF2A68D107D1
:100D800008D5284622F0030240F8482B019300F0D2
:100D9000B3F8019B019322AC204600F0ADF8A96B9B
:100DA000019B002F00F095807F0004EBC6044FF0FC
:100DB0000008043C01EB870251F8040B44F8040FCF
:100DC0009142F9D1B8F1000F0FD002AC102E31468C
:100DD00038BF102104EBC101843902EBC80452F87A
:100DE000040B41F8040F9442F9D1012B7FF47BAF3F
:100DF00022AC0432AA63204600F07AF87DE723F0A3
:100E000008032B6005F5A87000F0ACF899E7B8F17D
:100E1000100F2A6843D9D007A8F110080BD528462F
:100E200022F0010242F0020240F8482B019300F048
:100E30006BF82A68019B510725D40F2E04D822A8ED
:100E4000019300F061F8019B019302AC204600F091
:100E500063F8C6F110010029AA6B019BB6DD22AC34
:100E60004F0004EBC6041146A3E722A800F048F89F
:100E70003DE723F010032B6005F5E870019200F0C8
:100E80009DF8019A01E7284622F0040240F8D02B91
:100E9000019300F041F8019BCFE72A68CBE7D00728
:100EA0000AD5284622F0010242F0020240F8482BFF
:100EB000019300F029F8019B019322AC204600F039
:100EC00023F8B846A96B019B002F7FF46DAF0A464B
:100ED00009E70A468DE700BF00F1340191E83800C8
:100EE0009C46A6464CF8045D90E8FF0FE54600BD21
:100EF00090EC210B704700BF80EC210B704700BFC6
:100F000090EC200B704700BF80EC200B704700BFB7
:100F1000D0EC200B704700BFC0EC200B704700BF27
:100F2000F0EC0201F0EC0211F0EC0221F0EC0231E5
:100F3000F0EC0241F0EC0251F0EC0261F0EC0271D5
:100F4000F0EC0281F0EC0291F0EC02A1F0EC02B1C5
:100F5000F0EC02C1F0EC02D1F0EC02E1F0EC02F1B5
:100F6000704700BFE0EC0201E0EC0211E0EC02216E
:100F7000E0EC0231E0EC0241E0EC0251E0EC026115
:100F8000E0EC0271E0EC0281E0EC0291E0EC02A105
:100F9000E0EC02B1E0EC02C1E0EC02D1E0EC02E1F5
:100FA000E0EC02F1704700BFB0FC0181B0FC0191A0
:100FB000B0FC01A1B0FC01B1704700BFA0FC0181F1
:100FC000A0FC0191A0FC01A1A0FC01B1704700BFF1
:100FD000EC4600B52DE900502DE9FF1F4FF000034E
:100FE0002DE90C0001A9FFF7DDFBDDF840E012B0B0
:100FF000704700BFEC4600B52DE900502DE9FF1FFA
:101000004FF000032DE90C0001A9FFF705FCDDF806
:1010100040E012B0704700BFEC4600B52DE900502B
:101020002DE9FF1F4FF000032DE90C0001A9FFF788
:1010300015FCDDF840E012B0704700BFEC4600B58B
:101040002DE900502DE9FF1F4FF000032DE90C00A2
:1010500001ABFFF7D7FBDDF840E012B0704700BFEF
:10106000EC4600B52DE900502DE9FF1F4FF00003BD
:101070002DE90C0001AAFFF747FCDDF840E012B0B3
:10108000704700BF027A82B9437AABB14268013B34
:1010900010B4437213680321141D01721A024460D4
:1010A00002605DF8044B180E70470368013A027243
:1010B0001A020260180E7047B020704700B585B064
:1010C00003AA0023009219460C22FFF7D7FB0398CE
:1010D00005B05DF804FB00BFF0E700BF2DE9F04369
:1010E000054685B00E464FF000083046FFF7CAFFB0
:1010F000B028044600F0B180070620D500F0F003C8
:10110000802B65D0902B36D0A02B78D0B02B47D039
:10111000C02B00F08A8000F0F803D02B0BD100F038
:101120000702013242F40022052301212846FFF77D
:1011300093FD0028D9D0092005B0BDE8F0830DF15A
:101140000C09002319468700CDF800900D2228468F
:10115000FFF794FBFFB2039BCDF8009004376006C5
:101160004CBFDF1BFF18002319460D2228460397AA
:10117000FFF7A6FBB9E700F00D030D2BDBD003AFA3
:10118000002300F00F02194600972846FFF776FB70
:101190000023009719460D222846FFF791FBA4E78C
:1011A000B1285FD0B22800F0CC80B3287ED000F008
:1011B000FC03B42BBFD000F007020132012342F43C
:1011C000002219462846FFF747FD00288DD0B2E7D8
:1011D0003046FFF757FF24020443B4F5004FAAD06E
:1011E00024010023A2B219462846FFF735FD002846
:1011F000A1D114F4004F18BF4FF0010875E7C243A6
:1012000002F007034FF47F621A41010702F47F6284
:101210004FF0000348BF42F4804219462846FFF7CA
:101220001BFD00283FF461AF85E7C62851D0C728D1
:101230005AD000F0F803C02B69D0C82875D0C9284F
:101240007FF479AF3046FFF71DFF020300F00F0077
:1012500002F470220130024366E7B8F1000F14D0A7
:10126000002069E73046FFF70DFF00283FF463AF29
:1012700010F0F0037FF45FAF024619462846FFF7EF
:10128000EBFC00283FF431AF55E703AC43460E2298
:10129000414600942846FFF7F1FA00942846434659
:1012A0000F224146FFF70CFB404645E73046FFF76B
:1012B000E9FE010300F00F0001F47021421C01233C
:1012C0000A4328461946FFF7C7FC00283FF40DAF34
:1012D00031E73046FFF7D6FE010300F00F0001F4BE
:1012E0007021421C0323EBE73046FFF7CBFE02469A
:1012F00000283FF420AF10F0F0037FF41CAF04216E
:101300002846FFF7A9FC00283FF4EFAE13E700F0F2
:101310000F020132032342F4202219462846FFF728
:101320009BFC00283FF4E1AE05E73046FFF7AAFE3C
:1013300000F0F00200F00F031032013343EA0232F2
:10134000F2E600230DF10C090D221946CDF80090AC
:101350002846FFF793FA3046FFF794FE02064FF057
:1013600002070CD5039B00F07F00B84003443046D1
:101370000393FFF787FE030607F10707F2D4039BE9
:10138000CDF8009000F07F0403F50172BC4000230B
:10139000144419460D2228460394FFF791FAA4E657
:1013A00010B5C36C84B05A6803208DF80C00DC794A
:1013B0008DF80D4012020833084601A901920293EC
:1013C000FFF78CFE04B010BD08B5FFF785FE806CFA
:1013D00008BD00BF08B5FFF77FFEC06CC37900EB06
:1013E0008300083008BD00BF08B504F057FA00BFFD
:1013F00008B5FFF7F9FF00BF704700BF80B485B0A4
:1014000000AF0346FB800023FB60B7F90630842B56
:1014100005D0B7F90620FB6813440333FB60FB6873
:1014200018461437BD465DF8047B704780B500AFA1
:1014300000F00CFE0023184680BDF0B587B002AF67
:10144000786039607B685C687B681D687B681B69B5
:101450009EB27B68B3F908301846FFF7CFFF02460B
:1014600007F10C03019300923B683246294620465F
:1014700000F08EFC0346012B01D0002300E0FB6846
:1014800018461437BD46F0BD80B584B000AF786013
:101490007B68FB60FB68002B01D0FB6800E0012348
:1014A000184600F09FFD002318461037BD4680BD4A
:1014B00080B500AF01F09AF80346012B01D000F08F
:1014C0004BFA00BF80BD80B483B000AF78607B680A
:1014D00003F108027B685A607B684FF0FF329A6024
:1014E0007B6803F108027B68DA607B6803F108021D
:1014F0007B681A617B6800221A6000BF0C37BD460A
:101500005DF8047B704780B483B000AF78607B687F
:1015100000221A6100BF0C37BD465DF8047B70479E
:1015200080B485B000AF786039607B685B68FB6031
:101530003B68FA685A60FB689A683B689A60FB6887
:101540009B683A685A60FB683A689A603B687A68B8
:101550001A617B681B685A1C7B681A6000BF1437CD
:10156000BD465DF8047B704780B485B000AF7860FD
:1015700039603B681B68BB60BB68B3F1FF3F03D1B8
:101580007B681B69FB600CE07B680833FB6002E052
:10159000FB685B68FB60FB685B681B68BA689A4223
:1015A000F6D2FB685A683B685A603B685B683A68E9
:1015B0009A603B68FA689A60FB683A685A603B68D0
:1015C0007A681A617B681B685A1C7B681A6000BFC6
:1015D0001437BD465DF8047B704780B485B000AF1A
:1015E00078607B681B69FB607B685B687A689268DF
:1015F0009A607B689B687A6852685A60FB685B688F
:101600007A689A4203D17B689A68FB685A607B6863
:1016100000221A61FB681B685A1EFB681A60FB688F
:101620001B6818461437BD465DF8047B7047000000
:1016300080B485B000AFF860B9607A60FB68043BA5
:10164000FB60FB684FF080721A60FB68043BFB6034
:10165000BB6823F00102FB681A60FB68043BFB6077
:101660000C4AFB681A60FB68143BFB607A68FB68F5
:101670001A60FB68043BFB60FB686FF002021A60B3
:10168000FB68203BFB60FB6818461437BD465DF8DD
:10169000047B70479916000880B483B000AF0C4BF0
:1016A0001B68B3F1FF3F09D04FF0500383F311885B
:1016B000BFF36F8FBFF34F8F7B60FEE74FF0500398
:1016C00083F31188BFF36F8FBFF34F8F3B60FEE74B
:1016D00000000020000000000000000000000000EA
:1016E000074B19680868B0E8F04F80F30988BFF32A
:1016F0006F8F4FF0000080F311887047AFF30080C8
:10170000243D002000BF00BF06480068006880F349
:10171000088862B661B6BFF34F8FBFF36F8F00DFEB
:1017200000BF00BF08ED00E080B586B000AF3B4BC6
:101730001B683B4A934209D14FF0500383F3118851
:10174000BFF36F8FBFF34F8F3B61FEE7334B1B68D7
:10175000344A934209D14FF0500383F31188BFF309
:101760006F8FBFF34F8FFB60FEE72F4B7B617B6971
:101770001B78DBB2BB607B69FF221A707B691B7828
:10178000DBB2FB71FB79DBB203F05003DAB2274B1B
:101790001A70274B07221A6009E0254B1B68013B92
:1017A000234A1360FB79DBB25B00DBB2FB71FB7990
:1017B000DBB203F08003802BEFD01D4B1B681B02B4
:1017C0001B4A13601A4B1B6803F4E063184A13604A
:1017D000BB68DAB27B691A70164B1B68154A43F472
:1017E00070031360134B1B68124A43F0704313607D
:1017F00000F0D2F8104B00221A6000F0E9F80F4B0D
:101800001B680E4A43F040431360FFF77DFFFFF76C
:1018100043FF002318461837BD4680BD00ED00E0A9
:1018200071C20F4170C20F4100E400E004010020CA
:101830000801002020ED00E00000002034EF00E06F
:1018400080B483B000AF4FF0500383F31188BFF32F
:101850006F8FBFF34F8F7B600E4B1B6801330D4AB8
:1018600013600C4B1B68012B0ED10B4B1B68DBB2BA
:10187000002B09D04FF0500383F31188BFF36F8F13
:10188000BFF34F8F3B60FEE700BF0C37BD465DF8EE
:10189000047B70470000002004ED00E080B483B0BA
:1018A00000AF114B1B68002B09D14FF0500383F39D
:1018B0001188BFF36F8FBFF34F8F7B60FEE70A4B3A
:1018C0001B68013B084A1360074B1B68002B04D1BF
:1018D00000233B603B6883F3118800BF0C37BD4693
:1018E0005DF8047B704700BF00000020000000008E
:1018F000EFF30980BFF36F8F154B1A681EF0100FBE
:1019000008BF20ED108A20E9F04F10604DF8043D2B
:101910004FF0500080F31188BFF34F8FBFF36F8FEC
:1019200000F040FD4FF0000080F3118808BC1968FA
:101930000868B0E8F04F1EF0100F08BFB0EC108A36
:1019400080F30988BFF36F8F704700BFAFF300804B
:10195000243D002000BF00BF80B582B000AF4FF033
:10196000500383F31188BFF36F8FBFF34F8F7B60FA
:1019700000F05CFC0346002B03D0064B4FF0805276
:101980001A6000233B603B6883F3118800BF08376F
:10199000BD4680BD04ED00E080B400AF084B1B687D
:1019A000084AA2FB03239B09074A013B1360074B2C
:1019B00007221A6000BFBD465DF8047B704700BF78
:1019C00008000020D34D621014E000E010E000E0B9
:1019D000DFF80C00016841F470010160704700BF3E
:1019E00088ED00E080B58AB000AF78600023FB612D
:1019F00000F072FB574B1B68002B01D100F00CF973
:101A0000554B1A687B681340002B40F08C807B6834
:101A1000002B1CD008227B6813447B607B6803F09A
:101A20000703002B13D07B6823F0070308337B6088
:101A30007B6803F00703002B09D04FF0500383F3BA
:101A40001188BFF36F8FBFF34F8F7B61FEE77B6819
:101A5000002B68D0414B1B687A689A4263D8404B90
:101A60003B623F4B1B687B6204E07B6A3B627B6AA4
:101A70001B687B627B6A5B687A689A4203D97B6ADF
:101A80001B68002BF1D1334B1B687A6A9A424AD00B
:101A90003B6A1B6808221344FB617B6A1A683B6A35
:101AA0001A607B6A5A687B68D21A08235B009A42E4
:101AB0001ED97A6A7B681344BB61BB6903F00703D4
:101AC000002B09D04FF0500383F31188BFF36F8FC1
:101AD000BFF34F8F3B61FEE77B6A5A687B68D21A7F
:101AE000BB695A607B6A7A685A60B86900F0F6F898
:101AF0001A4B1A687B6A5B68D31A184A1360174B33
:101B00001A68184B1B689A4203D2144B1B68154A7B
:101B100013607B6A5A68104B1B681A437B6A5A60D1
:101B20007B6A00221A6000F0E5FAFB6903F0070304
:101B3000002B09D04FF0500383F31188BFF36F8F50
:101B4000BFF34F8FFB60FEE7FB6918462837BD46A1
:101B500080BD00BF143D0020203D0020183D002026
:101B60000C3D00201C3D002080B586B000AF7860A1
:101B70007B687B617B68002B46D008235B427A69D7
:101B800013447B617B693B613B695A68204B1B684E
:101B90001340002B09D14FF0500383F31188BFF39A
:101BA0006F8FBFF34F8FFB60FEE73B691B68002B15
:101BB00009D04FF0500383F31188BFF36F8FBFF349
:101BC0004F8FBB60FEE73B695A68114B1B6813409F
:101BD000002B19D03B691B68002B15D13B695A6853
:101BE0000B4B1B68DB431A403B695A6000F074FAE8
:101BF0003B695A68074B1B681344064A13603869EF
:101C000000F06CF800F076FA00BF1837BD4680BDD2
:101C1000203D0020183D002080B485B000AF4FF477
:101C20007053BB60274BFB60FB6803F00703002B7E
:101C30000CD0FB680733FB60FB6823F00703FB60F5
:101C4000BA68FB68D31A1F4A1344BB60FB687B6009
:101C50001D4A7B6813601C4B00225A607B68BA687F
:101C60001344FB600822FB689B1AFB60FB6823F0AF
:101C70000703FB60FB68154A1360144B1B680022C6
:101C80005A60124B1B6800221A607B683B603B68FD
:101C9000FA68D21A3B685A600C4B1A683B681A60A3
:101CA0003B685B680A4A13603B685B68094A1360DB
:101CB000094B4FF000421A6000BF1437BD465DF873
:101CC000047B70470C0100200C3D0020143D0020D7
:101CD0001C3D0020183D0020203D002080B485B030
:101CE00000AF7860284BFB6002E0FB681B68FB607C
:101CF000FB681B687A689A42F7D8FB68BB60FB6890
:101D00005B68BA6813447A689A4208D1FB685A68DB
:101D10007B685B681A44FB685A60FB687B607B6881
:101D2000BB607B685B68BA681A44FB681B689A42B0
:101D300018D1FB681A68154B1B689A420DD07B6856
:101D40005A68FB681B685B681A447B685A60FB68CA
:101D50001B681A687B681A6008E00C4B1A687B687D
:101D60001A6003E0FB681A687B681A60FA687B688F
:101D70009A4202D0FB687A681A6000BF1437BD46E9
:101D80005DF8047B704700BF0C3D0020143D00202F
:101D900080B58CB004AFF860B9603B601346FB803F
:101DA000FB889B001846FFF71DFE78617B69002BBE
:101DB0000ED05420FFF716FEF861FB69002B03D00C
:101DC000FB697A691A6305E07869FFF7CDFE01E0E7
:101DD0000023FB61FB69002B13D0FA8800230393D7
:101DE000FB690293FB6A0193BB6A00933B68B96885
:101DF000F86800F00EF8F86900F08AF80123BB617A
:101E000002E04FF0FF33BB61BB6918462037BD4687
:101E100080BD80B588B000AFF860B9607A603B6083
:101E20003B6B1A6B7B6803F18043013B9B001344BF
:101E3000BB61BB6923F00703BB61BB6903F0070308
:101E4000002B09D04FF0500383F31188BFF36F8F3D
:101E5000BFF34F8F7B61FEE70023FB6112E0BA689E
:101E6000FB69134419783A6BFB69134434330A460F
:101E70001A70BA68FB6913441B78002B06D0FB6903
:101E80000133FB61FB690F2BE9D900E000BF3B6B1D
:101E9000002283F84320BB6A062B01D90623BB62CC
:101EA0003B6BBA6ADA623B6BBA6A5A643B6B0022DC
:101EB0009A643B6B04331846FFF725FB3B6B1833E2
:101EC0001846FFF720FB3B6B3A6B1A61BB6AC3F104
:101ED00007023B6B9A613B6B3A6B5A623B6B002289
:101EE000DA643B6B002283F850203A68F968B869DD
:101EF000FFF79EFB02463B6B1A60FB6A002B02D089
:101F0000FB6A3A6B1A6000BF2037BD4680BD0000F7
:101F100080B582B000AF7860FFF792FC2A4B1B6857
:101F20000133294A1360294B1B68002B09D1274A2A
:101F30007B681360244B1B68012B10D100F0A4FABE
:101F40000DE0234B1B68002B09D1204B1B68DA6A7C
:101F50007B68DB6A9A4202D81C4A7B6813601D4B7F
:101F60001B6801331B4A13607B68DB6A01229A40BD
:101F7000194B1B681343184A13607B68DA6A1346CF
:101F80009B0013449B00154A1A447B68043319468E
:101F90001046FFF7C5FAFFF781FC0D4B1B68002BBD
:101FA0000ED00A4B1B68DA6A7B68DB6A9A4207D25A
:101FB0000B4B4FF080521A60BFF34F8FBFF36F8F00
:101FC00000BF0837BD4680BD243E0020243D0020D0
:101FD000303E0020403E00202C3E0020283D0020C6
:101FE00004ED00E080B584B000AF78600023FB60B2
:101FF0007B68002B16D0134B1B68002B09D04FF0C9
:10200000500383F31188BFF36F8FBFF34F8FBB6013
:10201000FEE700F061F80021786800F005FB00F0B1
:1020200069F8F860FB68002B07D1074B4FF080522E
:102030001A60BFF34F8FBFF36F8F00BF1037BD46DD
:1020400080BD00BF4C3E002004ED00E080B586B0AE
:1020500002AF1B4B019300230093002380221949F8
:102060001948FFF795FEF860FB68012B15D14FF07A
:10207000500383F31188BFF36F8FBFF34F8FBB60A3
:10208000124B4FF0FF321A60114B01221A60114BB4
:1020900000221A60FFF748FB0DE0FB68B3F1FF3F39
:1020A00009D14FF0500383F31188BFF36F8FBFF353
:1020B0004F8F7B60FEE700BF1037BD4680BD00BF7D
:1020C000483E0020D059000859240008443E002012
:1020D000303E0020283E002080B400AF044B1B6837
:1020E0000133034A136000BFBD465DF8047B7047AF
:1020F0004C3E002080B584B000AF0023FB6000237D
:10210000BB60414B1B68002B09D14FF0500383F398
:102110001188BFF36F8FBFF34F8F3B60FEE7FFF770
:102120008FFB394B1B68013B374A1360364B1B68EA
:10213000002B61D1354B1B68002B5DD02EE0344B5A
:10214000DB68DB68FB60FB6818331846FFF745FA6D
:10215000FB6804331846FFF740FAFB68DB6A01228C
:102160009A402C4B1B6813432A4A1360FB68DA6AB7
:1021700013469B0013449B00274A1A44FB68043310
:1021800019461046FFF7CCF9FB68DA6A234B1B6847
:10219000DB6A9A4202D3224B01221A601C4B1B6855
:1021A000002BCCD1FB68002B01D000F0F9F91D4BBE
:1021B0001B687B607B68002B10D000F037F803466B
:1021C000002B02D0164B01221A607B68013B7B601A
:1021D0007B68002BF1D1134B00221A60104B1B6857
:1021E000002B09D00123BB600F4B4FF080521A60C7
:1021F000BFF34F8FBFF36F8FFFF750FBBB681846DD
:102200001037BD4680BD00BF4C3E0020243E00205C
:10221000E43D00202C3E0020283D0020243D0020ED
:10222000383E0020343E002004ED00E080B586B04A
:1022300000AF00237B61504B1B68002B40F08C806B
:102240004E4B1B6801333B614C4A3B6913603B6951
:10225000002B1FD14A4B1B681B68002B09D04FF085
:10226000500383F31188BFF36F8FBFF34F8F3B6031
:10227000FEE7434B1B68FB60424B1B68404A136000
:10228000404AFB681360404B1B6801333E4A1360B1
:1022900000F086F93D4B1B683A699A424DD3384BA2
:1022A0001B681B68002B01D1012300E00023002BD9
:1022B00004D0364B4FF0FF321A603EE0304B1B68C3
:1022C000DB68DB68BB60BB685B687B603A697B6826
:1022D0009A4203D22D4A7B6813602EE0BB68043318
:1022E0001846FFF77AF9BB689B6A002B04D0BB68DD
:1022F00018331846FFF771F9BB68DB6A01229A4070
:10230000234B1B681343224A1360BB68DA6A1346E7
:102310009B0013449B001F4A1A44BB6804331946B0
:102320001046FFF7FDF8BB68DA6A1B4B1B68DB6AD7
:102330009A42B4D301237B61B1E7174B1B68DA6A79
:10234000144913469B0013449B000B441B68012B4C
:1023500007D901237B6104E0104B1B6801330F4A4E
:1023600013600F4B1B68002B01D001237B617B693D
:1023700018461837BD4680BD4C3E0020283E002040
:10238000DC3D0020E03D00203C3E0020443E00209B
:102390002C3E0020283D0020243D0020343E00201B
:1023A000383E002080B487B000AF264B1B68002B5E
:1023B00003D0254B01221A603EE0234B00221A6015
:1023C000224B1B68FB60FB68B3FA83F3FB72FB7A5A
:1023D000C3F11F037B611E497A6913469B001344B6
:1023E0009B000B441B68002B09D14FF0500383F373
:1023F0001188BFF36F8FBFF34F8F7B60FEE77A6961
:1024000013469B0013449B00114A13443B613B69F4
:102410005B685A683B695A603B695A683B69083394
:102420009A4204D13B695B685A683B695A603B69D0
:102430005B68DB68074A136000BF1C37BD465DF868
:10244000047B70474C3E0020383E00202C3E00208C
:10245000283D0020243D002080B582B000AF786088
:1024600000F052F8064B1B68012BF9D9054B4FF0D1
:1024700080521A60BFF34F8FBFF36F8FF0E700BF3A
:10248000283D002004ED00E080B582B000AF0023BD
:102490007B600CE07A6813469B0013449B00124A51
:1024A00013441846FFF70FF87B6801337B607B68A5
:1024B000062BEFD90D48FFF706F80D48FFF703F894
:1024C0000C48FFF700F80C48FEF7FDFF0B48FEF73D
:1024D000FAFF0B4B054A1A600A4B054A1A6000BF07
:1024E0000837BD4680BD00BF283D0020B43D002018
:1024F000C83D0020E43D0020F83D0020103E0020B3
:10250000DC3D0020E03D002080B582B000AF28E037
:10251000FFF7E2FD174B1B68002B0CBF01230023C4
:10252000DBB27B60FFF7E6FD7B68002B19D1FFF77C
:1025300087F9104BDB68DB683B603B680433184667
:10254000FFF74BF80C4B1B68013B0B4A13600B4B1E
:102550001B68013B094A1360FFF7A0F9386800F0D7
:102560000FF8064B1B68002BD2D100BF0837BD46C1
:1025700080BD00BFF83D0020243E00200C3E00201E
:1025800080B582B000AF78607B681B6B1846FFF7A0
:10259000EBFA7868FFF7E8FA00BF0837BD4680BD60
:1025A00080B483B000AF0F4B1B681B68002B01D1B8
:1025B000012300E00023002B04D00B4B4FF0FF322F
:1025C0001A6008E0074B1B68DB68DB687B607B6890
:1025D0005B68054A136000BF0C37BD465DF8047B9D
:1025E000704700BFDC3D0020443E002080B483B033
:1025F00000AF0B4B1B68002B02D101237B6008E06E
:10260000084B1B68002B02D102237B6001E00023F2
:102610007B607B6818460C37BD465DF8047B7047CD
:10262000303E00204C3E002080B584B000AF786082
:102630003960294B1B68FB60284B1B680433184624
:10264000FEF7CBFF0346002B0BD1244B1B68DB6A44
:10265000012202FA03F3DA43214B1B681340204A9C
:1026600013607B68B3F1FF3F0AD13B68002B07D0B2
:102670001A4B1B68043319461A48FEF751FF26E02F
:10268000FA687B681344BB60144B1B68BA685A60D5
:10269000BA68FB689A4209D2134B1A680F4B1B6841
:1026A000043319461046FEF75FFF10E00F4B1A681F
:1026B0000A4B1B68043319461046FEF755FF0C4BB6
:1026C0001B68BA689A4202D2094ABB68136000BF0D
:1026D0001037BD4680BD00BF283E0020243D0020AD
:1026E0002C3E0020103E0020E03D0020DC3D00207C
:1026F000443E0020DFF834D0002103E00C4B5B584F
:10270000435004310B480C4B42189A42F6D30B4A03
:1027100002E0002342F8043B094B9A42F9D302F04D
:1027200033FF03F0C3F802F02BFD704700000320D5
:10273000045D000800000020E8000020E800002000
:102740006C430020FEE7000080B500AF0E4B1B6815
:102750000D4A43F4007313600B4B1B680A4A43F4A1
:1027600080631360084B1B68074A43F4807313604F
:10277000032000F0F7F8002002F088FE02F054FE7B
:102780000023184680BD00BF003C024080B400AF6B
:10279000064B1B781A46064B1B681344044A136009
:1027A00000BFBD465DF8047B704700BF04000020F9
:1027B000503E002080B400AF034B1B681846BD4656
:1027C0005DF8047B704700BF503E002080B485B0A8
:1027D00000AF78607B6803F00703FB600C4BDB689D
:1027E000BB60BA684FF6FF031340BB60FB681A0278
:1027F000BB68134343F0BF6343F40033BB60044A38
:10280000BB68D36000BF1437BD465DF8047B7047DA
:1028100000ED00E080B400AF044BDB681B0A03F05E
:1028200007031846BD465DF8047B704700ED00E0E5
:1028300080B483B000AF0346FB71FB7903F01F0245
:10284000074997F907305B09012000FA02F241F8C5
:10285000232000BF0C37BD465DF8047B704700BFE6
:1028600000E100E080B483B000AF03463960FB7143
:1028700097F90730002B0BDA3B68DAB20C49FB7989
:1028800003F00F03043B1201D2B20B441A7609E0A5
:102890003B68DAB2074997F907301201D2B20B440C
:1028A00083F8002300BF0C37BD465DF8047B7047FA
:1028B00000ED00E000E100E080B489B000AFF86016
:1028C000B9607A60FB6803F00703FB61FB69C3F141
:1028D0000703042B28BF0423BB61FB690433062BC9
:1028E00002D9FB69033B00E000237B614FF0FF321C
:1028F000BB6902FA03F3DA43BB681A407B699A406A
:102900004FF0FF317B6901FA03F3D9437B680B4039
:10291000134318462437BD465DF8047B704700001A
:1029200080B582B000AF78607B68013BB3F1807FF7
:1029300001D301230FE00A4A7B68013B53600F215A
:102940004FF0FF30FFF78EFF054B00229A60044BDB
:1029500007221A60002318460837BD4680BD00BF15
:1029600010E000E080B582B000AF78607868FFF7D3
:102970002DFF00BF0837BD4680BD80B586B000AFD3
:102980000346B9607A60FB7300237B61FFF742FF67
:1029900078617A68B9687869FFF78EFF024697F91F
:1029A0000F3011461846FFF75DFF00BF1837BD46D0
:1029B00080BD80B582B000AF0346FB7197F9073048
:1029C0001846FFF735FF00BF0837BD4680BD80B50C
:1029D00082B000AF78607868FFF7A2FF0346184620
:1029E0000837BD4680BD000080B483B000AF78607A
:1029F0007B68042B06D1094B1B68084A43F004038B
:102A0000136005E0054B1B68044A23F004031360C0
:102A100000BF0C37BD465DF8047B704710E000E056
:102A200080B586B000AF786000237B61FFF7C2FEFF
:102A300038617B68002B01D1012399E07B6800227B
:102A400083F834207B68022283F835207B681B687A
:102A50001A687B681B6822F001021A600FE0FFF71A
:102A6000A9FE02463B69D31A052B08D97B682022B0
:102A70005A657B68032283F83520032378E07B685E
:102A80001B681B6803F00103002BE8D17B681B68FF
:102A90001B687B617A69384B13407B617B685A689D
:102AA0007B689B681A437B68DB681A437B681B69F9
:102AB0001A437B685B691A437B689B691A437B688E
:102AC000DB691A437B681B6A13437A6913437B6192
:102AD0007B685B6A042B07D17B68DA6A7B681B6BB7
:102AE00013437A6913437B617B681B687A691A60B8
:102AF0007B681B685B697B617B6923F007037B61F3
:102B00007B685B6A7A6913437B617B685B6A042B31
:102B100017D17B689B6A7A6913437B617B68DB6AA8
:102B2000002B0ED0786800F099FA0346002B08D0ED
:102B30007B6840225A657B68012283F83520012397
:102B400016E07B681B687A695A61786800F050FA71
:102B50000346FB607B68DB6D3F229A40FB689A600E
:102B60007B6800225A657B68012283F835200023A8
:102B700018461837BD4680BD3F8010F080B586B03E
:102B800000AFF860B9607A603B600023FB75FB68BA
:102B90009B6D3B61FB6893F83430012B01D102231C
:102BA00048E0FB68012283F83420FB6893F8353055
:102BB000DBB2012B37D1FB68022283F83520FB689A
:102BC00000225A653B687A68B968F86800F0E2F953
:102BD000FB68DB6D3F229A403B699A60FB681B688B
:102BE0001A68FB681B6842F016021A60FB681B68D3
:102BF0005A69FB681B6842F080025A61FB681B6CD3
:102C0000002B07D0FB681B681A68FB681B6842F042
:102C100008021A60FB681B681A68FB681B6842F0B0
:102C200001021A6005E0FB68002283F834200223C9
:102C3000FB75FB7D18461837BD4680BD80B483B058
:102C400000AF78607B6893F83530DBB2022B04D09C
:102C50007B6880225A6501230CE07B68052283F89B
:102C600035207B681B681A687B681B6822F00102AC
:102C70001A60002318460C37BD465DF8047B704788
:102C800080B586B000AF78600023BB60924B1B68B4
:102C9000924AA2FB03239B0A7B617B689B6D3B618D
:102CA0003B691B68FB607B68DB6D08229A40FB6810
:102CB0001340002B1AD07B681B681B6803F00403C9
:102CC000002B13D07B681B681A687B681B6822F096
:102CD00004021A607B68DB6D08229A403B699A60A7
:102CE0007B685B6D43F001027B685A657B68DB6D36
:102CF00001229A40FB681340002B12D07B681B68AE
:102D00005B6903F08003002B0BD07B68DB6D012235
:102D10009A403B699A607B685B6D43F002027B6876
:102D20005A657B68DB6D04229A40FB681340002BD8
:102D300012D07B681B681B6803F00203002B0BD0CA
:102D40007B68DB6D04229A403B699A607B685B6D0F
:102D500043F004027B685A657B68DB6D10229A4061
:102D6000FB681340002B43D07B681B681B6803F093
:102D70000803002B3CD07B68DB6D10229A403B6936
:102D80009A607B681B681B6803F48023002B18D0B3
:102D90007B681B681B6803F40023002B08D17B6849
:102DA0001B6C002B24D07B681B6C786898471FE055
:102DB0007B689B6C002B1BD07B689B6C786898476A
:102DC00016E07B681B681B6803F48073002B07D137
:102DD0007B681B681A687B681B6822F008021A600F
:102DE0007B681B6C002B03D07B681B6C7868984752
:102DF0007B68DB6D20229A40FB681340002B00F0BB
:102E00008E807B681B681B6803F01003002B00F0AA
:102E100086807B68DB6D20229A403B699A607B68E4
:102E200093F83530DBB2052B36D17B681B681A6806
:102E30007B681B6822F016021A607B681B685A695F
:102E40007B681B6822F080025A617B681B6C002B38
:102E500003D17B689B6C002B07D07B681B681A68CA
:102E60007B681B6822F008021A607B68DB6D3F22DA
:102E70009A403B699A607B68002283F834207B6823
:102E8000012283F835207B681B6D002B7DD07B6889
:102E90001B6D7868984778E07B681B681B6803F4B3
:102EA0008023002B1CD07B681B681B6803F4002365
:102EB000002B08D17B685B6C002B30D07B685B6C8F
:102EC000786898472BE07B68DB6B002B27D07B680A
:102ED000DB6B7868984722E008000020B5814E1B24
:102EE0007B681B681B6803F48073002B0FD17B6821
:102EF0001B681A687B681B6822F010021A607B68E6
:102F0000002283F834207B68012283F835207B6817
:102F1000DB6B002B03D07B68DB6B786898477B68A2
:102F20005B6D002B32D07B685B6D03F00103002BDF
:102F300022D07B68052283F835207B681B681A68DD
:102F40007B681B6822F001021A60BB680133BB601A
:102F50007A699A4207D37B681B681B6803F00103F8
:102F6000002BF2D100E000BF7B68002283F8342000
:102F70007B68012283F835207B68DB6C002B05D051
:102F80007B68DB6C7868984700E000BF1837BD4667
:102F900080BD00BF80B485B000AFF860B9607A60D2
:102FA0003B60FB681B681A68FB681B6822F4802280
:102FB0001A60FB681B683A685A60FB689B68402B84
:102FC00008D1FB681B687A689A60FB681B68BA685E
:102FD000DA6007E0FB681B68BA689A60FB681B68E8
:102FE0007A68DA6000BF1437BD465DF8047B70472D
:102FF00080B485B000AF78607B681B68DBB2103BA3
:10300000144AA2FB03231B09FB60134AFB68134409
:103010001B781A467B68DA65FB68032B09D97B6845
:103020001B6823F47F7323F003031A1D7B689A65E2
:1030300007E07B681B6823F47F7323F003037A683F
:1030400093657B689B6D18461437BD465DF8047B1D
:10305000704700BFABAAAAAA285B000880B485B05D
:1030600000AF78600023FB737B689B6ABB607B6862
:103070009B69002B1FD1BB68032B55D801A252F8C6
:1030800023F000BF95300008A730000895300008F5
:10309000293100087B68DB6A03F08073002B45D080
:1030A0000123FB7342E07B68DB6AB3F1C07F3FD151
:1030B0000123FB733CE07B689B69B3F5005F21D182
:1030C000BB68032B36D801A252F823F0DD3000088C
:1030D000E3300008DD300008F53000080123FB7301
:1030E0002FE07B68DB6A03F08073002B24D0012380
:1030F000FB7321E07B68DB6AB3F1C07F1ED1012343
:10310000FB731BE0BB68022B02D9032B03D018E032
:103110000123FB7315E07B68DB6A03F08073002BEF
:103120000ED00123FB730BE000BF0AE000BF08E0F4
:1031300000BF06E000BF04E000BF02E000BF00E007
:1031400000BFFB7B18461437BD465DF8047B704713
:1031500080B489B000AF7860396000237B610023C0
:103160003B610023BB610023FB6177E10122FB6926
:1031700002FA03F37B613B681B687A6913403B6189
:103180003A697B699A4240F066813B685B68022B32
:1031900003D03B685B68122B23D1FB69DA087B689C
:1031A000083253F82230BB61FB6903F007039B0030
:1031B0000F2202FA03F3DB43BA691340BB613B6899
:1031C0001A69FB6903F007039B0002FA03F3BA696B
:1031D0001343BB61FB69DA087B680832B96943F8BD
:1031E00022107B681B68BB61FB695B00032202FA4B
:1031F00003F3DB43BA691340BB613B685B6803F0D0
:103200000302FB695B0002FA03F3BA691343BB6173
:103210007B68BA691A603B685B68012B0BD03B681E
:103220005B68022B07D03B685B68112B03D03B68BF
:103230005B68122B30D17B689B68BB61FB695B00CC
:10324000032202FA03F3DB43BA691340BB613B6814
:10325000DA68FB695B0002FA03F3BA691343BB61E6
:103260007B68BA699A607B685B68BB610122FB6915
:1032700002FA03F3DB43BA691340BB613B685B6846
:103280001B0903F00102FB6902FA03F3BA69134355
:10329000BB617B68BA695A607B68DB68BB61FB69AC
:1032A0005B00032202FA03F3DB43BA691340BB61FC
:1032B0003B689A68FB695B0002FA03F3BA6913433F
:1032C000BB617B68BA69DA603B685B6803F0805376
:1032D000002B00F0C0800023FB60654B5B6C644AF0
:1032E00043F480435364624B5B6C03F48043FB60A4
:1032F000FB68604AFB699B08023352F82330BB61CC
:10330000FB6903F003039B000F2202FA03F3DB4384
:10331000BA691340BB617B68574A934237D07B68D8
:10332000564A934231D07B68554A93422BD07B68F2
:10333000544A934225D07B68534A93421FD07B68FE
:10334000524A934219D07B68514A934213D07B680A
:10335000504A93420DD07B684F4A934207D07B6816
:103360004E4A934201D1092312E00A2310E00823B8
:103370000EE007230CE006230AE0052308E00423FF
:1033800006E0032304E0022302E0012300E000231F
:10339000FA6902F0030292009340BA691343BB61D9
:1033A0003449FB699B080233BA6941F823203C4B3E
:1033B0001B68BB613B69DB43BA691340BB613B6877
:1033C0005B6803F48033002B03D0BA693B69134375
:1033D000BB61334ABB691360314B5B68BB613B69BE
:1033E000DB43BA691340BB613B685B6803F400339D
:1033F000002B03D0BA693B691343BB61284ABB6900
:103400005360274B9B68BB613B69DB43BA69134040
:10341000BB613B685B6803F48013002B03D0BA697F
:103420003B691343BB611E4ABB6993601C4BDB685D
:10343000BB613B69DB43BA691340BB613B685B68B6
:1034400003F40013002B03D0BA693B691343BB613B
:10345000134ABB69D360FB690133FB61FB690F2B26
:103460007FF684AE00BF2437BD465DF8047B70470D
:1034700000380240003801400000024000040240D1
:1034800000080240000C02400010024000140240FC
:1034900000180240001C02400020024000240240AC
:1034A000003C014080B483B000AF78600B467B8065
:1034B00013467B707B78002B03D07A887B689A61F7
:1034C00003E07B881A047B689A6100BF0C37BD4615
:1034D0005DF8047B704780B483B000AF78600B4622
:1034E0007B807B685A697B885A407B685A6100BF41
:1034F0000C37BD465DF8047B7047000080B586B090
:1035000000AF78607B68002B01D101232DE27B683E
:103510001B6803F00103002B75D0A34B9B6803F0DD
:103520000C03042B0CD0A04B9B6803F00C03082B5E
:1035300012D19D4B5B6803F48003B3F5800F0BD170
:10354000994B1B6803F40033002B5BD07B685B68EE
:10355000002B57D1012308E27B685B68B3F5803FFD
:1035600006D1914B1B68904A43F4803313601DE0F1
:103570007B685B68B3F5A02F0CD18B4B1B688A4A24
:1035800043F480231360884B1B68874A43F48033DD
:1035900013600BE0844B1B68834A23F48033136071
:1035A000814B1B68804A23F4802313607B685B682F
:1035B000002B13D0FFF7FEF8386108E0FFF7FAF8A8
:1035C00002463B69D31A642B01D90323CDE1764B24
:1035D0001B6803F40033002BF0D014E0FFF7EAF887
:1035E000386108E0FFF7E6F802463B69D31A642B1E
:1035F00001D90323B9E16C4B1B6803F40033002BA2
:10360000F0D100E000BF7B681B6803F00203002BD1
:1036100063D0654B9B6803F00C03002B0BD0624B0F
:103620009B6803F00C03082B1CD15F4B5B6803F411
:103630008003002B16D15C4B1B6803F00203002BA8
:1036400005D07B68DB68012B01D001238DE1564B4F
:103650001B6823F0F8027B681B69DB0052491343A7
:103660000B603AE07B68DB68002B20D04F4B0122D7
:103670001A60FFF79FF8386108E0FFF79BF80246F1
:103680003B69D31A022B01D903236EE1464B1B6819
:1036900003F00203002BF0D0434B1B6823F0F80229
:1036A0007B681B69DB00404913430B6015E03F4B0F
:1036B00000221A60FFF77EF8386108E0FFF77AF819
:1036C00002463B69D31A022B01D903234DE1364B45
:1036D0001B6803F00203002BF0D17B681B6803F02A
:1036E0000803002B30D07B685B69002B16D0304B71
:1036F00001221A60FFF75EF8386108E0FFF75AF818
:1037000002463B69D31A022B01D903232DE1264B34
:103710005B6F03F00203002BF0D015E0244B002276
:103720001A60FFF747F8386108E0FFF743F80246F0
:103730003B69D31A022B01D9032316E11A4B5B6FA5
:1037400003F00203002BF0D17B681B6803F0040335
:10375000002B00F0A0800023FB75134B1B6C03F0C3
:103760008053002B0FD10023FB600F4B1B6C0E4AC4
:1037700043F0805313640C4B1B6C03F08053FB60CD
:10378000FB680123FB750B4B1B6803F48073002B54
:1037900021D1084B1B68074A43F480731360FFF77D
:1037A00009F8386111E000BF0038024000004742CC
:1037B000800E474200700040FEF7FCFF02463B6966
:1037C000D31A022B01D90323CFE06A4B1B6803F401
:1037D0008073002BF0D07B689B68012B06D1664B71
:1037E0001B6F654A43F0010313671CE07B689B680D
:1037F000052B0CD1604B1B6F5F4A43F0040313672A
:103800005D4B1B6F5C4A43F0010313670BE05A4B9F
:103810001B6F594A23F001031367574B1B6F564A1E
:1038200023F0040313677B689B68002B15D0FEF719
:10383000C1FF38610AE0FEF7BDFF02463B69D31ABB
:1038400041F28832934201D903238EE04A4B1B6F29
:1038500003F00203002BEED014E0FEF7ABFF38615B
:103860000AE0FEF7A7FF02463B69D31A41F288320D
:10387000934201D9032378E03F4B1B6F03F002030F
:10388000002BEED1FB7D012B05D13B4B1B6C3A4A43
:1038900023F0805313647B689B69002B64D0364B04
:1038A0009B6803F00C03082B5CD07B689B69022BA0
:1038B00041D1324B00221A60FEF77CFF386108E0EC
:1038C000FEF778FF02463B69D31A022B01D9032386
:1038D0004BE0294B1B6803F00073002BF0D17B6891
:1038E000DA697B681B6A1A437B685B6A9B011A432F
:1038F0007B689B6A5B08013B1B041A437B68DB6A9D
:103900001B061D4913434B601C4B01221A60FEF736
:1039100051FF386108E0FEF74DFF02463B69D31ABC
:10392000022B01D9032320E0134B1B6803F0007323
:10393000002BF0D018E0114B00221A60FEF73AFF7E
:10394000386108E0FEF736FF02463B69D31A022BC6
:1039500001D9032309E0084B1B6803F00073002B17
:10396000F0D101E0012300E0002318461837BD46DE
:1039700080BD00BF00700040003802406000474238
:1039800080B584B000AF786039607B68002B01D1CE
:103990000123CAE0674B1B6803F00F033A689A42A1
:1039A0000CD9644B3A68D2B21A70624B1B6803F0B0
:1039B0000F033A689A4201D00123B6E07B681B6886
:1039C00003F00203002B20D07B681B6803F0040384
:1039D000002B05D0584B9B68574A43F4E053936043
:1039E0007B681B6803F00803002B05D0524B9B68D3
:1039F000514A43F4604393604F4B9B6823F0F002BD
:103A00007B689B684C4913438B607B681B6803F0A1
:103A10000103002B44D07B685B68012B07D1464B28
:103A20001B6803F40033002B19D101237DE07B6870
:103A30005B68022B03D07B685B68032B07D13E4B8E
:103A40001B6803F00073002B09D101236DE03A4B92
:103A50001B6803F00203002B01D1012365E0364B04
:103A60009B6823F003027B685B68334913438B60D8
:103A7000FEF7A0FEF8600AE0FEF79CFE0246FB6837
:103A8000D31A41F28832934201D903234DE02A4BE5
:103A90009B6803F00C027B685B689B009A42EBD149
:103AA000244B1B6803F00F033A689A420CD2214B57
:103AB0003A68D2B21A701F4B1B6803F00F033A68C2
:103AC0009A4201D0012330E07B681B6803F00403B5
:103AD000002B08D0184B9B6823F4E0527B68DB680E
:103AE000154913438B607B681B6803F00803002BA8
:103AF00009D0114B9B6823F460427B681B69DB0093
:103B00000D4913438B6000F01DF801460A4B9B687A
:103B10001B0903F00F03094AD35C21FA03F3084A97
:103B20001360002001F0B2FC002318461037BD4698
:103B300080BD00BF003C024000380240305B0008FE
:103B400008000020F0B585B000AF00237B600023A3
:103B5000FB6000233B600023BB60634B9B6803F06A
:103B60000C03042B07D0082B08D0002B40F0B480A6
:103B70005E4BBB60B3E05E4BBB60B0E05A4B5B6832
:103B800003F03F037B60584B5B6803F48003002B1A
:103B90004AD0554B5B689B094FF0000440F2FF117F
:103BA0004FF0000203EA010504EA02062946324604
:103BB0004FF000034FF00004540144EAD1644B017C
:103BC00019462246491B62EB06024FF000034FF0F4
:103BD0000004940144EA91648B015B1A64EB0204D3
:103BE0004FF000014FF00002E20042EA5372D900A8
:103BF0000B4614465B1944EB06044FF000014FF0EE
:103C00000002620242EAD35259020B461446184699
:103C100021467B684FF000041A462346FCF7E8FA79
:103C200003460C46FB6049E02F4B5B689B094FF055
:103C3000000440F2FF114FF0000203EA010504EA1C
:103C40000206294632464FF000034FF000045401AB
:103C500044EAD1644B0119462246491B62EB060235
:103C60004FF000034FF00004940144EA91648B018B
:103C70005B1A64EB02044FF000014FF00002E20017
:103C800042EA5372D9000B4614465B1944EB060412
:103C90004FF000014FF00002A20242EA9352990253
:103CA0000B461446184621467B684FF000041A461E
:103CB0002346FCF79DFA03460C46FB600A4B5B6803
:103CC0001B0C03F0030301335B003B60FA683B68A5
:103CD000B2FBF3F3BB6002E0044BBB6000BFBB6808
:103CE00018461437BD46F0BD003802400024F400E9
:103CF00000127A0080B400AF034B1B681846BD4623
:103D00005DF8047B704700BF0800002080B500AF5D
:103D1000FFF7F0FF0146054B9B685B0B03F00703C1
:103D2000034AD35C21FA03F3184680BD00380240F1
:103D3000405B000880B483B000AF786039607B6876
:103D40000F221A60124B9B6803F003027B685A60D3
:103D50000F4B9B6803F0F0027B689A600C4B9B68EA
:103D600003F4E0527B68DA60094B9B68DB0803F4DC
:103D7000E0527B681A61074B1B6803F00F023B6837
:103D80001A6000BF0C37BD465DF8047B704700BF6A
:103D900000380240003C024080B582B000AF78603D
:103DA0007B68002B01D1012356E07B6800229A62D8
:103DB0007B6893F85130DBB2002B06D17B68002280
:103DC00083F85020786801F0BDFA7B68022283F8FE
:103DD00051207B681B681A687B681B6822F04002D0
:103DE0001A607B685A687B689B681A437B68DB684B
:103DF0001A437B681B691A437B685B691A437B68BB
:103E00009B6903F400731A437B68DB691A437B6880
:103E10001B6A42EA03017B689A6A7B681B680A4353
:103E20001A607B689B691B0C03F004017B685A6A6B
:103E30007B681B680A435A607B681B68DA697B6889
:103E40001B6822F40062DA617B6800225A657B6895
:103E5000012283F85120002318460837BD4680BD53
:103E600080B586B000AFF860B9601346FB800023D0
:103E7000FB75FB6893F85030012B01D1022383E0DE
:103E8000FB68012283F85020FB6893F85130DBB2C5
:103E9000012B02D00223FB7571E0BB68002B02D01E
:103EA000FB88002B02D10123FB7568E0FB6803222D
:103EB00083F85120FB6800225A65FB68BA681A63D0
:103EC000FB68FA889A86FB68FA88DA86FB68002223
:103ED0009A63FB6800225A64FB6800221A64FB683C
:103EE00000229A87FB680022DA87FB689B68B3F59B
:103EF000004F07D1FB681B681A68FB681B6842F417
:103F000080421A60FB689B6C214A1A64FB689B6CB8
:103F1000204ADA63FB689B6C1F4ADA64FB689B6C7F
:103F200000221A65FB68986CFB681B6B1946FB68DE
:103F30001B680C331A46FB68DB8E9BB2FEF71EFE35
:103F4000FB681B681B6803F04003402B07D0FB682D
:103F50001B681A68FB681B6842F040021A60FB6825
:103F60001B685A68FB681B6842F020025A60FB68B5
:103F70001B685A68FB681B6842F002025A60FB68C3
:103F8000002283F85020FB7D18461837BD4680BDBF
:103F900023420008894100083F42000880B588B0EC
:103FA00000AF78607B681B685B68FB617B681B689F
:103FB0009B68BB61BB6903F04003002B0ED1BB695A
:103FC00003F00103002B09D0FB6903F04003002B31
:103FD00004D07B681B6C78689847B1E0BB6903F03C
:103FE0000203002B09D0FB6903F08003002B04D0EF
:103FF0007B685B6C78689847A2E0BB6903F4B07398
:10400000002B00F09D80FB6903F02003002B00F0E3
:104010009780BB6903F04003002B23D07B6893F8A3
:104020005130DBB2032B11D07B685B6D43F004028F
:104030007B685A6500237B617B681B68DB687B615A
:104040007B681B689B687B617B690BE000233B619D
:104050007B681B68DB683B617B681B689B683B6116
:104060003B696DE0BB6903F02003002B14D07B6833
:104070005B6D43F001027B685A650023FB607B683F
:104080001B689B68FB607B681B681A687B681B6801
:1040900022F040021A60FB68BB6903F48073002BB6
:1040A0000CD07B685B6D43F008027B685A65002387
:1040B000BB607B681B689B68BB60BB687B685B6D93
:1040C000002B3CD07B681B685A687B681B6822F019
:1040D000E0025A607B68012283F85120FB6903F0FB
:1040E0000203002B04D1FB6903F00103002B22D053
:1040F0007B681B685A687B681B6822F003025A6061
:104100007B68DB6C002B08D07B68DB6C0E4A1A6581
:104110007B68DB6C1846FEF791FD7B689B6C002B7F
:104120000CD07B689B6C084A1A657B689B6C1846B0
:10413000FEF784FD02E0786800F01CF800BF00BFC5
:104140002037BD4680BD00BF7F42000880B483B0E9
:1041500000AF786000BF0C37BD465DF8047B704748
:1041600080B483B000AF786000BF0C37BD465DF807
:10417000047B704780B483B000AF786000BF0C3719
:10418000BD465DF8047B704780B586B000AF7860AF
:104190007B689B6B7B6100233B61FEF70BFB386107
:1041A0007B681B681B6803F48073002B33D17B6929
:1041B0001B685A687B691B6822F002025A603A69E0
:1041C0006421786900F0D8F80346002B05D07B699C
:1041D0005B6D43F020027B695A657B699B68002B0D
:1041E0000AD10023FB607B691B68DB68FB607B698D
:1041F0001B689B68FB60FB687B690022DA867B6931
:10420000012283F851207B695B6D002B03D0786914
:10421000FFF7B0FF02E07869FFF798FF1837BD4657
:1042200080BD80B584B000AF78607B689B6BFB601D
:10423000F868FFF795FF00BF1037BD4680BD80B519
:1042400084B000AF78607B689B6BFB60FB681B6889
:104250005A68FB681B6822F003025A60FB685B6DBA
:1042600043F01002FB685A65FB68012283F8512075
:10427000F868FFF77FFF00BF1037BD4680BD80B5EF
:1042800084B000AF78607B689B6BFB60FB680022AA
:10429000DA87FB680022DA86F868FFF76BFF00BF59
:1042A0001037BD4680BD80B584B000AFF860B960FE
:1042B0007A603B604DE03B68B3F1FF3F49D03B681B
:1042C000002B07D0FEF776FA0246BB69D31A3A688C
:1042D0009A423ED8FB681B685A68FB681B6822F04C
:1042E000E0025A60FB685B68B3F5827F11D1FB681E
:1042F0009B68B3F5004F04D0FB689B68B3F5806FF3
:1043000007D1FB681B681A68FB681B6822F0400233
:104310001A60FB689B6AB3F5005F10D1FB681B68ED
:104320001968FB681A684DF6FF730B401360FB6851
:104330001B681A68FB681B6842F400521A60FB682D
:10434000012283F85120FB68002283F850200323C8
:104350000EE0FB681B689A68BB681340BA689A4213
:1043600001D1012200E000227B689A42A3D1002300
:1043700018461037BD4680BD80B586B002AFF860E4
:10438000B9607A607B680093BB6800228021F8687E
:10439000FFF789FF0346002B07D0FB685B6D43F0F6
:1043A0002002FB685A65032300E0002318461037FB
:1043B000BD4680BD80B582B000AF78607B68002BC1
:1043C00001D101231DE07B6893F83930DBB2002B6B
:1043D00006D17B68002283F83820786800F015F851
:1043E0007B68022283F839207B681A687B68043373
:1043F0001946104600F05EF97B68012283F83920E7
:10440000002318460837BD4680BD80B483B000AF96
:10441000786000BF0C37BD465DF8047B704780B400
:1044200083B000AF78607B681B68DA687B681B68C4
:1044300042F00102DA607B681B681A687B681B68BF
:1044400042F001021A60002318460C37BD465DF8A1
:10445000047B704780B582B000AF78607B681B68D2
:104460001B6903F00203022B22D17B681B68DB6807
:1044700003F00203022B1BD17B681B686FF0020262
:104480001A617B6801221A767B681B689B6903F0BE
:104490000303002B03D0786800F0EEF805E078689D
:1044A00000F0E0F8786800F0F1F87B6800221A76F6
:1044B0007B681B681B6903F00403042B22D17B6813
:1044C0001B68DB6803F00403042B1BD17B681B68AB
:1044D0006FF004021A617B6802221A767B681B68FF
:1044E0009B6903F44073002B03D0786800F0C4F894
:1044F00005E0786800F0B6F8786800F0C7F87B68E7
:1045000000221A767B681B681B6903F00803082BDE
:1045100022D17B681B68DB6803F00803082B1BD1E2
:104520007B681B686FF008021A617B6804221A76A8
:104530007B681B68DB6903F00303002B03D07868FA
:1045400000F09AF805E0786800F08CF8786800F0E0
:104550009DF87B6800221A767B681B681B6903F054
:104560001003102B22D17B681B68DB6803F010035B
:10457000102B1BD17B681B686FF010021A617B68DF
:1045800008221A767B681B68DB6903F44073002BF2
:1045900003D0786800F070F805E0786800F062F801
:1045A000786800F073F87B6800221A767B681B68D5
:1045B0001B6903F00103012B0ED17B681B68DB68CC
:1045C00003F00103012B07D17B681B686FF0010228
:1045D0001A61786800F062FE7B681B681B6903F053
:1045E0008003802B0ED17B681B68DB6803F080039F
:1045F000802B07D17B681B686FF080021A61786896
:1046000000F00CF97B681B681B6903F04003402B2A
:104610000ED17B681B68DB6803F04003402B07D199
:104620007B681B686FF040021A61786800F038F808
:104630007B681B681B6903F02003202B0ED17B686D
:104640001B68DB6803F02003202B07D17B681B6805
:104650006FF020021A61786800F0D6F800BF0837C2
:10466000BD4680BD80B483B000AF786000BF0C371A
:10467000BD465DF8047B704780B483B000AF7860BE
:1046800000BF0C37BD465DF8047B704780B483B033
:1046900000AF786000BF0C37BD465DF8047B704703
:1046A00080B483B000AF786000BF0C37BD465DF8C2
:1046B000047B704780B485B000AF78603960002318
:1046C000FB607B681B68FB607B68444A934213D0A5
:1046D0007B68B3F1804F0FD07B68414A93420BD087
:1046E0007B68404A934207D07B683F4A934203D09D
:1046F0007B683E4A934201D1012300E00023002B56
:1047000008D0FB6823F07003FB603B685B68FA68C5
:104710001343FB607B68314A93422BD07B68B3F133
:10472000804F27D07B682E4A934223D07B682D4A46
:1047300093421FD07B682C4A93421BD07B682B4A44
:10474000934217D07B682A4A934213D07B68294A48
:1047500093420FD07B68284A93420BD07B68274A4C
:10476000934207D07B68264A934203D07B68254A50
:10477000934201D1012300E00023002B08D0FB6805
:1047800023F44073FB603B68DB68FA681343FB600B
:104790007B68FA681A603B689A687B68DA623B68F3
:1047A0001A687B689A627B680C4A934203D07B68E4
:1047B0000E4A934201D1012300E00023002B03D0D5
:1047C0003B681A697B681A637B6801225A6100BFE3
:1047D0001437BD465DF8047B704700BF0000014000
:1047E0000004004000080040000C004000040140AC
:1047F00000400140004401400048014000180040D2
:10480000001C00400020004080B483B000AF7860FE
:1048100000BF0C37BD465DF8047B704780B483B0A1
:1048200000AF786000BF0C37BD465DF8047B704771
:1048300080B582B000AF00237B600C4B1B6B0B4A32
:1048400043F480031363094B1B6B03F480037B6009
:104850007B68002205213C20FEF78FF83C20FEF704
:10486000A8F800BF0837BD4680BD00BF0038024031
:1048700080B582B000AF78607B6818687B689B88E1
:1048800001221946FEF70EFE00BF0837BD4680BD67
:1048900080B582B000AF78607B6818687B689B88C1
:1048A00000221946FEF7FEFD00BF0837BD4680BD59
:1048B00080B590B000AF7860384A07F1340392E8D1
:1048C000030083E8030007F1280007F134030CCB51
:1048D000334900F069F807F1280207F10C0311468B
:1048E000184600F07AF807F12803184600F084F81B
:1048F00007F128030521184600F08BF807F128037B
:104900000721184600F098F8002387F83F3000236D
:1049100087F83E3097F83E30072B26D8002387F8DB
:104920003D3097F83D30172B19D897F83D2097F870
:104930003E301A4497F83F309A420CBF01230023BF
:10494000DBB297F83E2097F83D1007F10C0000F01D
:1049500086F897F83D30013387F83D30E1E797F866
:104960003E30013387F83E30D4E707F10C03184698
:1049700000F0B4F80B49002000F07CFF97F83F30BE
:10498000013387F83F3097F83F3003F01F0387F873
:104990003F303220FCF778FDB9E700BF005A00082D
:1049A000643E0020D859000880B485B000AFF8609C
:1049B000B960394681E80C00FB68BA681A60FB6888
:1049C00004333A4692E8030083E80300FB68184684
:1049D0001437BD465DF8047B704780B483B000AFE8
:1049E000786039607B683A681A607B6818460C37D3
:1049F000BD465DF8047B704780B582B000AF78603B
:104A000001220C21786800F089F800BF0837BD4604
:104A100080BD80B582B000AF78600B46FB70FB783C
:104A200003F00F03DBB21A460A21786800F076F82B
:104A300000BF0837BD4680BD80B582B000AF78604A
:104A40000B46FB70FB7803F00703DBB21A460B2121
:104A5000786800F063F800BF0837BD4680BD80B5B8
:104A600082B000AF7860084611461A460346FB70D4
:104A70000B46BB7013467B707B78002B14D0BA7842
:104A8000FB781946786800F079F803461A7851B235
:104A9000BA7802F00702012000FA02F252B20A4389
:104AA00052B2D2B21A7015E0BA78FB78194678681B
:104AB00000F064F803461A7851B2BA7802F007029F
:104AC000012000FA02F252B2D24352B20A4052B26C
:104AD000D2B21A7000BF0837BD4680BD90B585B010
:104AE00000AF78600023FB73FB7B072B12D87B6839
:104AF0001C687B680433FA7B1146184600F06BF89B
:104B00000246FB7B1946204600F074F8FB7B01331C
:104B1000FB73E9E700BF1437BD4690BD80B58AB08E
:104B200000AFF860B9601346FB7107F110033B62F8
:104B3000386A00F093F87862386A00F09BF8F86100
:104B40007A6AFB699A420FD07B6ABB61FB791A468D
:104B5000B968F86800F09BF803461A46BB691A80EA
:104B60007B6A02337B62EBE707F110031946F868B2
:104B700000F0A4F800BF2837BD4680BD80B586B0E0
:104B800000AF78600B46FB701346BB70FB7803F0F8
:104B900007037B61BB78DB08DBB23B61FB78DB089A
:104BA000DBB2FB603A6913465B001344FA681344B6
:104BB000BB607B6804337A691146184600F00BF835
:104BC0000246BB681946104600F0BAF8034618467C
:104BD0001837BD4680BD80B582B000AF78603960BF
:104BE0007B683968184600F0BAF80346184608375B
:104BF000BD4680BDF0B589B000AFF8600B467A6065
:104C0000FB72FB7A03F00703FB720023FB61FB6975
:104C1000022B19D8FB7A5D1CF969786800F0BFF89F
:104C200003461E7807F11403F969184600F0A8F846
:104C3000044632462946F86800F029F803462380E6
:104C4000FB690133FB61E2E707F114031946F868D9
:104C500000F034F800BF2437BD46F0BD80B582B007
:104C600000AF7860786800F0A9F803461846083766
:104C7000BD4680BD80B582B000AF7860786800F036
:104C80009DF80346063318460837BD4680BD80B4FC
:104C900085B000AFF860B9601346FB71BB68DBB24A
:104CA0001B021AB2FB791BB213431BB29BB218460C
:104CB0001437BD465DF8047B7047000090B583B0A3
:104CC00000AF786039607B6804331846FFF7E0FD79
:104CD0007B681C68386800F07EF80346032219469A
:104CE0002046FFF7BDF87B681B681B68134A934298
:104CF00020D17B681B681B689B6803F00203002BB4
:104D00000CBF01230023DBB2002B00D0F1E77B684E
:104D10001B681B689B6803F08003002B14BF0123F2
:104D20000023DBB2002B00D0F1E77B680433184688
:104D3000FFF79EFD00BF0C37BD4690BD00500140FF
:104D400080B582B000AF786039607B6839681846FA
:104D500000F04EF8034618460837BD4680BD80B4C3
:104D600083B000AF786039603A6813465B00134443
:104D70007A68134418460C37BD465DF8047B7047CB
:104D800080B582B000AF786039607B6839681846BA
:104D900000F03CF8034618460837BD4680BD80B594
:104DA00082B000AF786039607B683968184600F0DF
:104DB0001FF8034618460837BD4680BD80B582B04F
:104DC00000AF78607B68184600F02FF8034618465D
:104DD0000837BD4680BD80B582B000AF78607B6883
:104DE000184600F022F8034618460837BD4680BD35
:104DF00080B483B000AF786039607A683B68134450
:104E000018460C37BD465DF8047B704780B483B00C
:104E100000AF786039603B685B007A6813441846DD
:104E20000C37BD465DF8047B704780B483B000AF9B
:104E300078607B6818460C37BD465DF8047B704788
:104E4000B0B594B000AF234B07F13C041D460FCD25
:104E50000FC42B68236007F13C0300211846FCF7C0
:104E6000ECFA02461C4B1A601C4B07F128041D4645
:104E70000FCD0FC42B68236007F1280300211846CB
:104E8000FCF7DBFA0246164B1A60164B07F11404C6
:104E90001D460FCD0FC42B68236007F114030021BA
:104EA0001846FCF7CAFA02460F4B1A600F4B3C46F5
:104EB0001D460FCD0FC42B6823603B4600211846CA
:104EC000FCF7BBFA02460A4B1A6000BF5037BD46DA
:104ED000B0BD00BF145A0008543E0020345A0008E8
:104EE000583E0020545A00085C3E0020785A0008C2
:104EF000603E002080B582B000AF78600120FCF7F2
:104F0000C3FAFBE780B582B000AF78604FF4005180
:104F10000348FEF7E0FAFA20FCF7B6FAF6E700BF1E
:104F20000018024080B582B000AF78603220FCF7F4
:104F3000ABFAFBE780B58EB000AF00233B62874B36
:104F40001B6B864A43F010031363844B1B6B03F007
:104F500010033B623B6A0023FB61804B1B6B7F4A63
:104F600043F0040313637D4B1B6B03F00403FB61ED
:104F7000FB690023BB61794B1B6B784A43F020032C
:104F80001363764B1B6B03F02003BB61BB690023EB
:104F90007B61724B1B6B714A43F0800313636F4B51
:104FA0001B6B03F080037B617B6900233B616B4BD0
:104FB0001B6B6A4A43F001031363684B1B6B03F0DE
:104FC00001033B613B690023FB60644B1B6B634A3D
:104FD00043F002031363614B1B6B03F00203FB609E
:104FE000FB680023BB605D4B1B6B5C4A43F04003D6
:104FF00013635A4B1B6B03F04003BB60BB68002379
:105000007B60564B1B6B554A43F008031363534BAD
:105010001B6B03F008037B607B6801224FF48071F7
:105020004F48FEF73FFA00224FF4C0414D48FEF7CB
:1050300039FA4FF6FF737B620323BB620023FB62E6
:1050400007F1240319464848FEF782F84FF6FF732C
:105050007B620323BB620023FB6207F12403194632
:105060004248FEF775F84FF67F437B620323BB622D
:105070000023FB6207F1240319463948FEF768F85C
:105080004FF480737B621123BB620023FB62002319
:105090003B6307F1240319463148FEF759F8012311
:1050A0007B62334BBB620023FB6207F1240319468A
:1050B0003048FEF74DF849F6FE737B620323BB626E
:1050C0000023FB6207F1240319462A48FEF740F843
:1050D0004FF6FB737B620323BB620023FB6207F185
:1050E000240319462448FEF733F804237B62002387
:1050F000BB620023FB6207F1240319461E48FEF73A
:1051000027F849F6FF737B620323BB620023FB622F
:1051100007F1240319461348FEF71AF84FF6FF73F8
:105120007B620323BB620023FB6207F12403194661
:105130001248FEF70DF84FF4C0437B620123BB62B7
:105140000023FB6200233B6307F124031946054853
:10515000FDF7FEFF00BF3837BD4680BD0038024076
:1051600000140240001802400010024000080240F3
:10517000000012100000024000040240000C024037
:1051800080B500AF0949002000F074FBFDF7DCFAA0
:1051900000F00EF8FFF7CEFEFFF74AFB00F096F89E
:1051A000FFF74EFEFCF742F9FEE700BF8C5A0008FD
:1051B00080B594B000AF0023BB60344B1B6C334A06
:1051C00043F080531364314B1B6C03F08053BB607E
:1051D000BB6800237B602E4B1B682D4A43F4404381
:1051E00013602B4B1B6803F440437B607B680123F7
:1051F0003B624FF480337B620223BB634FF4800336
:10520000FB6308233B644FF4A8737B640223BB64F5
:105210000723FB6407F120031846FEF76FF90346E6
:10522000002B03D0A7211B4800F04AF80F23FB6096
:1052300002233B6100237B614FF4A053BB614FF419
:105240008053FB6107F10C0305211846FEF798FB1C
:105250000346002B03D0B5210E4800F031F8FEF7CD
:1052600049FD02460C4BA3FB02239B091846FDF7A0
:10527000AEFB0420FDF7B8FB00220F214FF0FF30FA
:10528000FDF77BFB00BF5037BD4680BD00380240B4
:1052900000700040B45A0008D34D621080B582B04F
:1052A00000AF78607B681B68044A934201D1FDF728
:1052B0006DFA00BF0837BD4680BD00BF0004014045
:1052C00080B483B000AF78603960FEE780B500AF8E
:1052D000194B1A4A1A60184B4FF482725A60164BD7
:1052E00000229A60144B4FF40062DA60124B0022E5
:1052F0001A61114B00225A610F4B4FF400729A61F0
:105300000D4B3022DA610C4B00221A620A4B00224C
:105310005A62094B00229A62074B0A22DA62064857
:10532000FEF73AFD0346002B03D052210448FFF755
:10533000C7FF00BF80BD00BF643E00200050014099
:10534000E85A000880B588B000AF78607B681B68B9
:105350002F4A934258D10023BB602E4B5B6C2D4AE1
:1053600043F4801353642B4B5B6C03F48013BB60DA
:10537000BB684FF42073FB6002233B6100237B6119
:105380000023BB610523FB6107F10C03194622488A
:10539000FDF7DEFE214B224A1A60204B4FF080625F
:1053A0005A601E4B40229A601C4B0022DA601B4B55
:1053B0004FF480621A61194B4FF400625A61174B27
:1053C0004FF400529A61154B0022DA61134B002210
:1053D0001A62124B00225A621048FDF721FB034665
:1053E000002B03D07C210F48FFF76AFF7B680B4A34
:1053F0009A640A4A7B689363002205215520FDF7D1
:10540000BCFA5520FDF7D5FA00BF2037BD4680BD58
:10541000005001400038024000140240BC3E002011
:1054200070640240E85A000880B500AF0320FDF721
:1054300099FA002200216FF00B00FDF79EFA00227E
:1054400000216FF00A00FDF798FA002200216FF0AA
:105450000900FDF792FA002200216FF00400FDF729
:105460008CFA002200216FF00300FDF786FA00227B
:105470000F216FF00100FDF780FA00220F214FF09D
:10548000FF30FDF77AFA00BF80BD000080B58CB018
:1054900000AF78600023FB620023BB6200227968C2
:1054A0002C20FDF76AFA2C20FDF783FA0023FB601D
:1054B0001F4B5B6C1E4A43F0020353641C4B5B6C36
:1054C00003F00203FB60FB6807F1100207F114030D
:1054D00011461846FEF72EFCFEF718FC03465B004B
:1054E000FB62FB6A134AA2FB03239B0C013BBB62DA
:1054F000114B124A1A60104B40F2E732DA600E4A42
:10550000BB6A53600C4B00221A610B4B00229A605D
:105510000948FEF74FFF0346002B04D10648FEF76B
:105520007EFF034600E0012318463037BD4680BDAC
:105530000038024083DE1B431C3F00200004014072
:1055400080B500AFFBF7B4FF00BF80BD80B500AFF2
:105550000248FEF77FFF00BF80BD00BF1C3F002058
:1055600080B500AF0248FDF78BFB00BF80BD00BFD8
:10557000BC3E002080B500AF0248FEF70FFD00BF23
:1055800080BD00BF643E002080B400AF164BD3F84E
:105590008830154A43F47003C2F88830134B1B68F7
:1055A000124A43F001031360104B00229A600F4B24
:1055B0001B680E4A23F0847323F4803313600B4B73
:1055C0000B4A5A60094B1B68084A23F48023136076
:1055D000064B0022DA60044B4FF000629A6000BF75
:1055E000BD465DF8047B704700ED00E000380240E6
:1055F0001030002480B485B000AF78600023FB60D9
:105600007B68002B01D100230CE07B681B78002B0A
:1056100006D0FB680133FB607B6801337B60F4E7F5
:1056200000BFFB6818461437BD465DF8047B704721
:1056300080B400AF054B9B7A492B02D1034B00226B
:105640009A7200BFBD465DF8047B70470C000020D5
:1056500080B588B000AFF860B9607A60FFF7E8FF06
:105660008349FA6813465B001344DB000B442C3378
:105670001B6803F00303022B3AD07D49FA681346F6
:105680005B001344DB000B4428331B687B617849C3
:10569000FA6813465B001344DB000B4424331B6899
:1056A0007A69D31A013BFB61FB69002B0BDA704965
:1056B000FA6813465B001344DB000B4420331B687D
:1056C000FA691344FB617B68FA699A4210DA684907
:1056D000FA6813465B001344DB000B442C331B6851
:1056E00003F00303002B01D10023BCE0FB697B60C6
:1056F0007B68002B01D10023B5E00023BB615C492E
:10570000FA6813465B001344DB000B4428331B6824
:105710007B615749FA6813465B001344DB000B4476
:1057200024331B687A69D31A013BFB61FB69002BA8
:105730000BDA4F49FA6813465B001344DB000B4455
:1057400020331B68FA691344FB614949FA68134620
:105750005B001344DB000B44203319684448FA68AB
:1057600013465B001344DB00034424331B68CB1A4D
:10577000FA699A4213DB3E49FA6813465B00134408
:10578000DB000B44203319683948FA6813465B0084
:105790001344DB00034424331B68CB1A00E0FB698D
:1057A000FB617B68FA699342A8BF1346FB613049ED
:1057B000FB685A1C13465B001344DB000B440433A4
:1057C00019682B48FA6813465B001344DB00034456
:1057D00024331B680B44FA69B968184600F08AF84C
:1057E000FB69BA691344BB61FB69BA681344BB60C7
:1057F000FB697A68D31A7B601D49FA6813465B001F
:105800001344DB000B4424331A68FB69D118184891
:10581000FA6813465B001344DB0003442433196029
:105820001349FA6813465B001344DB000B4424332E
:1058300019680F48FA6813465B001344DB00034401
:1058400020331B68994209D10949FA6813465B0065
:105850001344DB000B44243300221A607B68002BC6
:105860007FF44DAFBB6918462037BD4680BD00BFF1
:105870000C00002080B584B000AF786039603868D3
:10588000FFF7B8FEF860FB681A4639687868FFF7DA
:10589000DFFE034618461037BD4680BD08B506201A
:1058A00000F05CF8012000F085F8000070B50D4EA6
:1058B0000D4CA41BA4100025A54209D10B4E0C4C85
:1058C00000F07AF8A41BA4100025A54205D170BDF4
:1058D00056F8253098470135EEE756F825309847B9
:1058E0000135F2E7FC5C0008FC5C0008FC5C000889
:1058F000005D000810B5431E0A44914200D110BD5E
:1059000011F8014B03F8014FF7E71F2938B504469A
:105910000D4604D9162303604FF0FF3038BD426CAA
:1059200012B152F821304BB9204600F031F82A4626
:1059300001462046BDE8384000F018B8012B0AD0D7
:10594000591C03D1162303600120E7E7002442F825
:105950002540284698470020E0E70000024B01461A
:105960001868FFF7D2BF00BF8400002038B5074C8D
:105970000023054608461146236000F013F8431C37
:1059800002D1236803B12B6038BD00BF68430020FB
:1059900000F000B8024B58221A604FF0FF307047F9
:1059A00068430020024B58221A604FF0FF307047C6
:1059B00068430020FEE700BFF8B500BFF8BC08BC94
:1059C0009E467047F8B500BFF8BC08BC9E467047BD
:1059D00049444C4500000000D092D0BDD183D18213
:1059E000D180D0B820D0B2D0B5D187D0BDD0BED074
:1059F000B3D0BE20D186D0B8D0BAD0BBD0B00000D2
:105A0000001402400001000064656661756C745406
:105A100061736B00085A0008F54E00080000000092
:105A200000000000800000006D795461736B4C44ED
:105A300033000000285A0008054F0008000000004D
:105A400000000000800000006D795461736B4C44CD
:105A500034000000485A0008254F000800000000EC
:105A600000000000800000006D795461736B446990
:105A700073706C6179000000685A0008B148000832
:105A8000000000000000000080000000D09DD0B0A9
:105A9000D187D0B0D0BBD0BE20D0BFD180D0BED0B7
:105AA000B3D180D0B0D0BCD0BCD18B206D61696E39
:105AB000000000002F686F6D652F6E69636B2F709B
:105AC000726F6A6563742F437562654D582F436C1E
:105AD000696F6E5F4D41585F746573742F537263C5
